{
  "_format": "hh-sol-artifact-1",
  "contractName": "Transactions",
  "sourceName": "contracts/Transactions.sol",
  "abi": [
    {
      "anonymous": false,
      "inputs": [
        {
          "indexed": false,
          "internalType": "address",
          "name": "from",
          "type": "address"
        },
        {
          "indexed": false,
          "internalType": "address",
          "name": "reciever",
          "type": "address"
        },
        {
          "indexed": false,
          "internalType": "uint256",
          "name": "amount",
          "type": "uint256"
        },
        {
          "indexed": false,
          "internalType": "uint256",
          "name": "timestamp",
          "type": "uint256"
        },
        {
          "indexed": false,
          "internalType": "string",
          "name": "keyword",
          "type": "string"
        },
        {
          "indexed": false,
          "internalType": "string",
          "name": "message",
          "type": "string"
        }
      ],
      "name": "Transfer",
      "type": "event"
    },
    {
      "inputs": [],
      "name": "TransactionCount",
      "outputs": [
        {
          "internalType": "uint256",
          "name": "",
          "type": "uint256"
        }
      ],
      "stateMutability": "view",
      "type": "function"
    },
    {
      "inputs": [
        {
          "internalType": "address",
          "name": "_reciever",
          "type": "address"
        },
        {
          "internalType": "uint256",
          "name": "_amount",
          "type": "uint256"
        },
        {
          "internalType": "string",
          "name": "_keyword",
          "type": "string"
        },
        {
          "internalType": "string",
          "name": "_message",
          "type": "string"
        }
      ],
      "name": "addToBlockchain",
      "outputs": [],
      "stateMutability": "nonpayable",
      "type": "function"
    },
    {
      "inputs": [],
      "name": "getAllTransactions",
      "outputs": [
        {
          "components": [
            {
              "internalType": "address",
              "name": "from",
              "type": "address"
            },
            {
              "internalType": "address",
              "name": "reciever",
              "type": "address"
            },
            {
              "internalType": "uint256",
              "name": "amount",
              "type": "uint256"
            },
            {
              "internalType": "uint256",
              "name": "timestamp",
              "type": "uint256"
            },
            {
              "internalType": "string",
              "name": "keyword",
              "type": "string"
            },
            {
              "internalType": "string",
              "name": "message",
              "type": "string"
            }
          ],
          "internalType": "struct Transactions.TransferStruct[]",
          "name": "",
          "type": "tuple[]"
        }
      ],
      "stateMutability": "view",
      "type": "function"
    },
    {
      "inputs": [],
      "name": "getTransctionCount",
      "outputs": [
        {
          "internalType": "uint256",
          "name": "",
          "type": "uint256"
        }
      ],
      "stateMutability": "view",
      "type": "function"
    }
  ],
  "bytecode": "0x60806040526000805534801561001457600080fd5b50610b14806100246000396000f3fe608060405234801561001057600080fd5b506004361061004c5760003560e01c806327506f53146100515780633dd547e91461006f5780637f1054021461008d578063cc2d7ead146100ab575b600080fd5b6100596100c7565b60405161006691906108e5565b60405180910390f35b61007761032a565b6040516100849190610907565b60405180910390f35b610095610333565b6040516100a29190610907565b60405180910390f35b6100c560048036038101906100c0919061060d565b610339565b005b60606001805480602002602001604051908101604052809291908181526020016000905b8282101561032157838290600052602060002090600602016040518060c00160405290816000820160009054906101000a900473ffffffffffffffffffffffffffffffffffffffff1673ffffffffffffffffffffffffffffffffffffffff1673ffffffffffffffffffffffffffffffffffffffff1681526020016001820160009054906101000a900473ffffffffffffffffffffffffffffffffffffffff1673ffffffffffffffffffffffffffffffffffffffff1673ffffffffffffffffffffffffffffffffffffffff1681526020016002820154815260200160038201548152602001600482018054600181600116156101000203166002900480601f0160208091040260200160405190810160405280929190818152602001828054600181600116156101000203166002900480156102675780601f1061023c57610100808354040283529160200191610267565b820191906000526020600020905b81548152906001019060200180831161024a57829003601f168201915b50505050508152602001600582018054600181600116156101000203166002900480601f0160208091040260200160405190810160405280929190818152602001828054600181600116156101000203166002900480156103095780601f106102de57610100808354040283529160200191610309565b820191906000526020600020905b8154815290600101906020018083116102ec57829003601f168201915b505050505081525050815260200190600101906100eb565b50505050905090565b60008054905090565b60005481565b6001600080828254019250508190555060016040518060c001604052803373ffffffffffffffffffffffffffffffffffffffff1681526020018673ffffffffffffffffffffffffffffffffffffffff16815260200185815260200142815260200184815260200183815250908060018154018082558091505060019003906000526020600020906006020160009091909190915060008201518160000160006101000a81548173ffffffffffffffffffffffffffffffffffffffff021916908373ffffffffffffffffffffffffffffffffffffffff16021790555060208201518160010160006101000a81548173ffffffffffffffffffffffffffffffffffffffff021916908373ffffffffffffffffffffffffffffffffffffffff1602179055506040820151816002015560608201518160030155608082015181600401908051906020019061048b9291906104f2565b5060a08201518160050190805190602001906104a89291906104f2565b5050507f1e92c3b94e87106bb5e1f3493c1debe5003450085b72f643a2839c3e4dd25eb63385854286866040516104e496959493929190610876565b60405180910390a150505050565b828054600181600116156101000203166002900490600052602060002090601f016020900481019282601f1061053357805160ff1916838001178555610561565b82800160010185558215610561579182015b82811115610560578251825591602001919060010190610545565b5b50905061056e9190610572565b5090565b5b8082111561058b576000816000905550600101610573565b5090565b60008135905061059e81610ab0565b92915050565b600082601f8301126105b557600080fd5b81356105c86105c382610953565b610922565b915080825260208301602083018583830111156105e457600080fd5b6105ef838284610a5b565b50505092915050565b60008135905061060781610ac7565b92915050565b6000806000806080858703121561062357600080fd5b60006106318782880161058f565b9450506020610642878288016105f8565b935050604085013567ffffffffffffffff81111561065f57600080fd5b61066b878288016105a4565b925050606085013567ffffffffffffffff81111561068857600080fd5b610694878288016105a4565b91505092959194509250565b60006106ac83836107c8565b905092915050565b6106bd81610a25565b82525050565b6106cc816109e9565b82525050565b6106db816109e9565b82525050565b60006106ec82610993565b6106f681856109b6565b93508360208202850161070885610983565b8060005b85811015610744578484038952815161072585826106a0565b9450610730836109a9565b925060208a0199505060018101905061070c565b50829750879550505050505092915050565b60006107618261099e565b61076b81856109c7565b935061077b818560208601610a6a565b61078481610a9f565b840191505092915050565b600061079a8261099e565b6107a481856109d8565b93506107b4818560208601610a6a565b6107bd81610a9f565b840191505092915050565b600060c0830160008301516107e060008601826106c3565b5060208301516107f360208601826106c3565b5060408301516108066040860182610858565b5060608301516108196060860182610858565b50608083015184820360808601526108318282610756565b91505060a083015184820360a086015261084b8282610756565b9150508091505092915050565b61086181610a1b565b82525050565b61087081610a1b565b82525050565b600060c08201905061088b60008301896106b4565b61089860208301886106d2565b6108a56040830187610867565b6108b26060830186610867565b81810360808301526108c4818561078f565b905081810360a08301526108d8818461078f565b9050979650505050505050565b600060208201905081810360008301526108ff81846106e1565b905092915050565b600060208201905061091c6000830184610867565b92915050565b6000604051905081810181811067ffffffffffffffff8211171561094957610948610a9d565b5b8060405250919050565b600067ffffffffffffffff82111561096e5761096d610a9d565b5b601f19601f8301169050602081019050919050565b6000819050602082019050919050565b600081519050919050565b600081519050919050565b6000602082019050919050565b600082825260208201905092915050565b600082825260208201905092915050565b600082825260208201905092915050565b60006109f4826109fb565b9050919050565b600073ffffffffffffffffffffffffffffffffffffffff82169050919050565b6000819050919050565b6000610a3082610a37565b9050919050565b6000610a4282610a49565b9050919050565b6000610a54826109fb565b9050919050565b82818337600083830152505050565b60005b83811015610a88578082015181840152602081019050610a6d565b83811115610a97576000848401525b50505050565bfe5b6000601f19601f8301169050919050565b610ab9816109e9565b8114610ac457600080fd5b50565b610ad081610a1b565b8114610adb57600080fd5b5056fea2646970667358221220abee4293bb365040761e3bf9449e9691c3fd35a8dd13c85fc75e42525ab2a52a64736f6c63430007030033",
  "linkReferences": {},
  "deployedLinkReferences": {}
}